{
  "contracts/mocks/CrossChainProofOfHumanityMock.sol": {
    "CrossChainProofOfHumanityMock": {
      "abi": [
        {
          "inputs": [
            {
              "internalType": "bytes20",
              "name": "_humanityId",
              "type": "bytes20"
            }
          ],
          "name": "boundTo",
          "outputs": [
            {
              "internalType": "address",
              "name": "",
              "type": "address"
            }
          ],
          "stateMutability": "view",
          "type": "function"
        },
        {
          "inputs": [
            {
              "internalType": "bytes20",
              "name": "_humanityId",
              "type": "bytes20"
            }
          ],
          "name": "humanityData",
          "outputs": [
            {
              "components": [
                {
                  "internalType": "address",
                  "name": "owner",
                  "type": "address"
                },
                {
                  "internalType": "uint40",
                  "name": "expirationTime",
                  "type": "uint40"
                },
                {
                  "internalType": "uint40",
                  "name": "lastTransferTime",
                  "type": "uint40"
                },
                {
                  "internalType": "bool",
                  "name": "isHomeChain",
                  "type": "bool"
                }
              ],
              "internalType": "struct ICrossChainProofOfHumanity.CrossChainHumanity",
              "name": "",
              "type": "tuple"
            }
          ],
          "stateMutability": "view",
          "type": "function"
        },
        {
          "inputs": [
            {
              "internalType": "address",
              "name": "_address",
              "type": "address"
            }
          ],
          "name": "isHuman",
          "outputs": [
            {
              "internalType": "bool",
              "name": "",
              "type": "bool"
            }
          ],
          "stateMutability": "view",
          "type": "function"
        },
        {
          "inputs": [
            {
              "internalType": "bytes20",
              "name": "_humanityId",
              "type": "bytes20"
            },
            {
              "internalType": "address",
              "name": "_owner",
              "type": "address"
            }
          ],
          "name": "mockBoundTo",
          "outputs": [],
          "stateMutability": "nonpayable",
          "type": "function"
        },
        {
          "inputs": [
            {
              "internalType": "bytes20",
              "name": "_humanityId",
              "type": "bytes20"
            },
            {
              "components": [
                {
                  "internalType": "address",
                  "name": "owner",
                  "type": "address"
                },
                {
                  "internalType": "uint40",
                  "name": "expirationTime",
                  "type": "uint40"
                },
                {
                  "internalType": "uint40",
                  "name": "lastTransferTime",
                  "type": "uint40"
                },
                {
                  "internalType": "bool",
                  "name": "isHomeChain",
                  "type": "bool"
                }
              ],
              "internalType": "struct ICrossChainProofOfHumanity.CrossChainHumanity",
              "name": "_data",
              "type": "tuple"
            }
          ],
          "name": "mockHumanityData",
          "outputs": [],
          "stateMutability": "nonpayable",
          "type": "function"
        },
        {
          "inputs": [
            {
              "internalType": "address",
              "name": "_address",
              "type": "address"
            },
            {
              "internalType": "bool",
              "name": "_status",
              "type": "bool"
            }
          ],
          "name": "mockIsHuman",
          "outputs": [],
          "stateMutability": "nonpayable",
          "type": "function"
        }
      ],
      "evm": {
        "bytecode": {
          "linkReferences": {},
          "object": "6080604052348015600f57600080fd5b506104d58061001f6000396000f3fe608060405234801561001057600080fd5b50600436106100625760003560e01c80631a355acb1461006757806330dc9016146100b757806349ff0c92146101a0578063c8d986051461023d578063d1c1f55514610285578063f72c436f146102be575b600080fd5b61009a610075366004610317565b6001600160601b0319166000908152600260205260409020546001600160a01b031690565b6040516001600160a01b0390911681526020015b60405180910390f35b6101566100c5366004610317565b604080516080810182526000808252602082018190529181018290526060810191909152506001600160601b03191660009081526020818152604091829020825160808101845290546001600160a01b038116825264ffffffffff600160a01b8204811693830193909352600160c81b81049092169281019290925260ff600160f01b909104161515606082015290565b6040805182516001600160a01b0316815260208084015164ffffffffff908116918301919091528383015116918101919091526060918201511515918101919091526080016100ae565b61023b6101ae366004610375565b6001600160601b0319909116600090815260208181526040918290208351815492850151938501516060909501511515600160f01b0260ff60f01b1964ffffffffff968716600160c81b021665ffffffffffff60c81b1996909516600160a01b026001600160c81b03199094166001600160a01b0390921691909117929092179390931691909117179055565b005b61023b61024b366004610427565b6001600160601b031991909116600090815260026020526040902080546001600160a01b0319166001600160a01b03909216919091179055565b61023b61029336600461045a565b6001600160a01b03919091166000908152600160205260409020805460ff1916911515919091179055565b6102ea6102cc366004610484565b6001600160a01b031660009081526001602052604090205460ff1690565b60405190151581526020016100ae565b80356001600160601b03198116811461031257600080fd5b919050565b60006020828403121561032957600080fd5b610332826102fa565b9392505050565b80356001600160a01b038116811461031257600080fd5b803564ffffffffff8116811461031257600080fd5b8035801515811461031257600080fd5b60008082840360a081121561038957600080fd5b610392846102fa565b92506080601f19820112156103a657600080fd5b506040516080810181811067ffffffffffffffff821117156103d857634e487b7160e01b600052604160045260246000fd5b6040526103e760208501610339565b81526103f560408501610350565b602082015261040660608501610350565b604082015261041760808501610365565b6060820152809150509250929050565b6000806040838503121561043a57600080fd5b610443836102fa565b915061045160208401610339565b90509250929050565b6000806040838503121561046d57600080fd5b61047683610339565b915061045160208401610365565b60006020828403121561049657600080fd5b6103328261033956fea26469706673582212206e7a9461d6a4fba187a9f694f6fa10ad6ee817dfaeea933d430b952b77daacb864736f6c634300081c0033",
          "opcodes": "PUSH1 0x80 PUSH1 0x40 MSTORE CALLVALUE DUP1 ISZERO PUSH1 0xF JUMPI PUSH1 0x0 DUP1 REVERT JUMPDEST POP PUSH2 0x4D5 DUP1 PUSH2 0x1F PUSH1 0x0 CODECOPY PUSH1 0x0 RETURN INVALID PUSH1 0x80 PUSH1 0x40 MSTORE CALLVALUE DUP1 ISZERO PUSH2 0x10 JUMPI PUSH1 0x0 DUP1 REVERT JUMPDEST POP PUSH1 0x4 CALLDATASIZE LT PUSH2 0x62 JUMPI PUSH1 0x0 CALLDATALOAD PUSH1 0xE0 SHR DUP1 PUSH4 0x1A355ACB EQ PUSH2 0x67 JUMPI DUP1 PUSH4 0x30DC9016 EQ PUSH2 0xB7 JUMPI DUP1 PUSH4 0x49FF0C92 EQ PUSH2 0x1A0 JUMPI DUP1 PUSH4 0xC8D98605 EQ PUSH2 0x23D JUMPI DUP1 PUSH4 0xD1C1F555 EQ PUSH2 0x285 JUMPI DUP1 PUSH4 0xF72C436F EQ PUSH2 0x2BE JUMPI JUMPDEST PUSH1 0x0 DUP1 REVERT JUMPDEST PUSH2 0x9A PUSH2 0x75 CALLDATASIZE PUSH1 0x4 PUSH2 0x317 JUMP JUMPDEST PUSH1 0x1 PUSH1 0x1 PUSH1 0x60 SHL SUB NOT AND PUSH1 0x0 SWAP1 DUP2 MSTORE PUSH1 0x2 PUSH1 0x20 MSTORE PUSH1 0x40 SWAP1 KECCAK256 SLOAD PUSH1 0x1 PUSH1 0x1 PUSH1 0xA0 SHL SUB AND SWAP1 JUMP JUMPDEST PUSH1 0x40 MLOAD PUSH1 0x1 PUSH1 0x1 PUSH1 0xA0 SHL SUB SWAP1 SWAP2 AND DUP2 MSTORE PUSH1 0x20 ADD JUMPDEST PUSH1 0x40 MLOAD DUP1 SWAP2 SUB SWAP1 RETURN JUMPDEST PUSH2 0x156 PUSH2 0xC5 CALLDATASIZE PUSH1 0x4 PUSH2 0x317 JUMP JUMPDEST PUSH1 0x40 DUP1 MLOAD PUSH1 0x80 DUP2 ADD DUP3 MSTORE PUSH1 0x0 DUP1 DUP3 MSTORE PUSH1 0x20 DUP3 ADD DUP2 SWAP1 MSTORE SWAP2 DUP2 ADD DUP3 SWAP1 MSTORE PUSH1 0x60 DUP2 ADD SWAP2 SWAP1 SWAP2 MSTORE POP PUSH1 0x1 PUSH1 0x1 PUSH1 0x60 SHL SUB NOT AND PUSH1 0x0 SWAP1 DUP2 MSTORE PUSH1 0x20 DUP2 DUP2 MSTORE PUSH1 0x40 SWAP2 DUP3 SWAP1 KECCAK256 DUP3 MLOAD PUSH1 0x80 DUP2 ADD DUP5 MSTORE SWAP1 SLOAD PUSH1 0x1 PUSH1 0x1 PUSH1 0xA0 SHL SUB DUP2 AND DUP3 MSTORE PUSH5 0xFFFFFFFFFF PUSH1 0x1 PUSH1 0xA0 SHL DUP3 DIV DUP2 AND SWAP4 DUP4 ADD SWAP4 SWAP1 SWAP4 MSTORE PUSH1 0x1 PUSH1 0xC8 SHL DUP2 DIV SWAP1 SWAP3 AND SWAP3 DUP2 ADD SWAP3 SWAP1 SWAP3 MSTORE PUSH1 0xFF PUSH1 0x1 PUSH1 0xF0 SHL SWAP1 SWAP2 DIV AND ISZERO ISZERO PUSH1 0x60 DUP3 ADD MSTORE SWAP1 JUMP JUMPDEST PUSH1 0x40 DUP1 MLOAD DUP3 MLOAD PUSH1 0x1 PUSH1 0x1 PUSH1 0xA0 SHL SUB AND DUP2 MSTORE PUSH1 0x20 DUP1 DUP5 ADD MLOAD PUSH5 0xFFFFFFFFFF SWAP1 DUP2 AND SWAP2 DUP4 ADD SWAP2 SWAP1 SWAP2 MSTORE DUP4 DUP4 ADD MLOAD AND SWAP2 DUP2 ADD SWAP2 SWAP1 SWAP2 MSTORE PUSH1 0x60 SWAP2 DUP3 ADD MLOAD ISZERO ISZERO SWAP2 DUP2 ADD SWAP2 SWAP1 SWAP2 MSTORE PUSH1 0x80 ADD PUSH2 0xAE JUMP JUMPDEST PUSH2 0x23B PUSH2 0x1AE CALLDATASIZE PUSH1 0x4 PUSH2 0x375 JUMP JUMPDEST PUSH1 0x1 PUSH1 0x1 PUSH1 0x60 SHL SUB NOT SWAP1 SWAP2 AND PUSH1 0x0 SWAP1 DUP2 MSTORE PUSH1 0x20 DUP2 DUP2 MSTORE PUSH1 0x40 SWAP2 DUP3 SWAP1 KECCAK256 DUP4 MLOAD DUP2 SLOAD SWAP3 DUP6 ADD MLOAD SWAP4 DUP6 ADD MLOAD PUSH1 0x60 SWAP1 SWAP6 ADD MLOAD ISZERO ISZERO PUSH1 0x1 PUSH1 0xF0 SHL MUL PUSH1 0xFF PUSH1 0xF0 SHL NOT PUSH5 0xFFFFFFFFFF SWAP7 DUP8 AND PUSH1 0x1 PUSH1 0xC8 SHL MUL AND PUSH6 0xFFFFFFFFFFFF PUSH1 0xC8 SHL NOT SWAP7 SWAP1 SWAP6 AND PUSH1 0x1 PUSH1 0xA0 SHL MUL PUSH1 0x1 PUSH1 0x1 PUSH1 0xC8 SHL SUB NOT SWAP1 SWAP5 AND PUSH1 0x1 PUSH1 0x1 PUSH1 0xA0 SHL SUB SWAP1 SWAP3 AND SWAP2 SWAP1 SWAP2 OR SWAP3 SWAP1 SWAP3 OR SWAP4 SWAP1 SWAP4 AND SWAP2 SWAP1 SWAP2 OR OR SWAP1 SSTORE JUMP JUMPDEST STOP JUMPDEST PUSH2 0x23B PUSH2 0x24B CALLDATASIZE PUSH1 0x4 PUSH2 0x427 JUMP JUMPDEST PUSH1 0x1 PUSH1 0x1 PUSH1 0x60 SHL SUB NOT SWAP2 SWAP1 SWAP2 AND PUSH1 0x0 SWAP1 DUP2 MSTORE PUSH1 0x2 PUSH1 0x20 MSTORE PUSH1 0x40 SWAP1 KECCAK256 DUP1 SLOAD PUSH1 0x1 PUSH1 0x1 PUSH1 0xA0 SHL SUB NOT AND PUSH1 0x1 PUSH1 0x1 PUSH1 0xA0 SHL SUB SWAP1 SWAP3 AND SWAP2 SWAP1 SWAP2 OR SWAP1 SSTORE JUMP JUMPDEST PUSH2 0x23B PUSH2 0x293 CALLDATASIZE PUSH1 0x4 PUSH2 0x45A JUMP JUMPDEST PUSH1 0x1 PUSH1 0x1 PUSH1 0xA0 SHL SUB SWAP2 SWAP1 SWAP2 AND PUSH1 0x0 SWAP1 DUP2 MSTORE PUSH1 0x1 PUSH1 0x20 MSTORE PUSH1 0x40 SWAP1 KECCAK256 DUP1 SLOAD PUSH1 0xFF NOT AND SWAP2 ISZERO ISZERO SWAP2 SWAP1 SWAP2 OR SWAP1 SSTORE JUMP JUMPDEST PUSH2 0x2EA PUSH2 0x2CC CALLDATASIZE PUSH1 0x4 PUSH2 0x484 JUMP JUMPDEST PUSH1 0x1 PUSH1 0x1 PUSH1 0xA0 SHL SUB AND PUSH1 0x0 SWAP1 DUP2 MSTORE PUSH1 0x1 PUSH1 0x20 MSTORE PUSH1 0x40 SWAP1 KECCAK256 SLOAD PUSH1 0xFF AND SWAP1 JUMP JUMPDEST PUSH1 0x40 MLOAD SWAP1 ISZERO ISZERO DUP2 MSTORE PUSH1 0x20 ADD PUSH2 0xAE JUMP JUMPDEST DUP1 CALLDATALOAD PUSH1 0x1 PUSH1 0x1 PUSH1 0x60 SHL SUB NOT DUP2 AND DUP2 EQ PUSH2 0x312 JUMPI PUSH1 0x0 DUP1 REVERT JUMPDEST SWAP2 SWAP1 POP JUMP JUMPDEST PUSH1 0x0 PUSH1 0x20 DUP3 DUP5 SUB SLT ISZERO PUSH2 0x329 JUMPI PUSH1 0x0 DUP1 REVERT JUMPDEST PUSH2 0x332 DUP3 PUSH2 0x2FA JUMP JUMPDEST SWAP4 SWAP3 POP POP POP JUMP JUMPDEST DUP1 CALLDATALOAD PUSH1 0x1 PUSH1 0x1 PUSH1 0xA0 SHL SUB DUP2 AND DUP2 EQ PUSH2 0x312 JUMPI PUSH1 0x0 DUP1 REVERT JUMPDEST DUP1 CALLDATALOAD PUSH5 0xFFFFFFFFFF DUP2 AND DUP2 EQ PUSH2 0x312 JUMPI PUSH1 0x0 DUP1 REVERT JUMPDEST DUP1 CALLDATALOAD DUP1 ISZERO ISZERO DUP2 EQ PUSH2 0x312 JUMPI PUSH1 0x0 DUP1 REVERT JUMPDEST PUSH1 0x0 DUP1 DUP3 DUP5 SUB PUSH1 0xA0 DUP2 SLT ISZERO PUSH2 0x389 JUMPI PUSH1 0x0 DUP1 REVERT JUMPDEST PUSH2 0x392 DUP5 PUSH2 0x2FA JUMP JUMPDEST SWAP3 POP PUSH1 0x80 PUSH1 0x1F NOT DUP3 ADD SLT ISZERO PUSH2 0x3A6 JUMPI PUSH1 0x0 DUP1 REVERT JUMPDEST POP PUSH1 0x40 MLOAD PUSH1 0x80 DUP2 ADD DUP2 DUP2 LT PUSH8 0xFFFFFFFFFFFFFFFF DUP3 GT OR ISZERO PUSH2 0x3D8 JUMPI PUSH4 0x4E487B71 PUSH1 0xE0 SHL PUSH1 0x0 MSTORE PUSH1 0x41 PUSH1 0x4 MSTORE PUSH1 0x24 PUSH1 0x0 REVERT JUMPDEST PUSH1 0x40 MSTORE PUSH2 0x3E7 PUSH1 0x20 DUP6 ADD PUSH2 0x339 JUMP JUMPDEST DUP2 MSTORE PUSH2 0x3F5 PUSH1 0x40 DUP6 ADD PUSH2 0x350 JUMP JUMPDEST PUSH1 0x20 DUP3 ADD MSTORE PUSH2 0x406 PUSH1 0x60 DUP6 ADD PUSH2 0x350 JUMP JUMPDEST PUSH1 0x40 DUP3 ADD MSTORE PUSH2 0x417 PUSH1 0x80 DUP6 ADD PUSH2 0x365 JUMP JUMPDEST PUSH1 0x60 DUP3 ADD MSTORE DUP1 SWAP2 POP POP SWAP3 POP SWAP3 SWAP1 POP JUMP JUMPDEST PUSH1 0x0 DUP1 PUSH1 0x40 DUP4 DUP6 SUB SLT ISZERO PUSH2 0x43A JUMPI PUSH1 0x0 DUP1 REVERT JUMPDEST PUSH2 0x443 DUP4 PUSH2 0x2FA JUMP JUMPDEST SWAP2 POP PUSH2 0x451 PUSH1 0x20 DUP5 ADD PUSH2 0x339 JUMP JUMPDEST SWAP1 POP SWAP3 POP SWAP3 SWAP1 POP JUMP JUMPDEST PUSH1 0x0 DUP1 PUSH1 0x40 DUP4 DUP6 SUB SLT ISZERO PUSH2 0x46D JUMPI PUSH1 0x0 DUP1 REVERT JUMPDEST PUSH2 0x476 DUP4 PUSH2 0x339 JUMP JUMPDEST SWAP2 POP PUSH2 0x451 PUSH1 0x20 DUP5 ADD PUSH2 0x365 JUMP JUMPDEST PUSH1 0x0 PUSH1 0x20 DUP3 DUP5 SUB SLT ISZERO PUSH2 0x496 JUMPI PUSH1 0x0 DUP1 REVERT JUMPDEST PUSH2 0x332 DUP3 PUSH2 0x339 JUMP INVALID LOG2 PUSH5 0x6970667358 0x22 SLT KECCAK256 PUSH15 0x7A9461D6A4FBA187A9F694F6FA10AD PUSH15 0xE817DFAEEA933D430B952B77DAACB8 PUSH5 0x736F6C6343 STOP ADDMOD SHR STOP CALLER "
        },
        "methodIdentifiers": {
          "boundTo(bytes20)": "1a355acb",
          "humanityData(bytes20)": "30dc9016",
          "isHuman(address)": "f72c436f",
          "mockBoundTo(bytes20,address)": "c8d98605",
          "mockHumanityData(bytes20,(address,uint40,uint40,bool))": "49ff0c92",
          "mockIsHuman(address,bool)": "d1c1f555"
        }
      }
    }
  }
}