{
  "contracts/mocks/HubMock.sol": {
    "HubMock": {
      "abi": [
        {
          "inputs": [
            {
              "internalType": "address",
              "name": "",
              "type": "address"
            },
            {
              "internalType": "address",
              "name": "",
              "type": "address"
            }
          ],
          "name": "expiries",
          "outputs": [
            {
              "internalType": "uint96",
              "name": "",
              "type": "uint96"
            }
          ],
          "stateMutability": "view",
          "type": "function"
        },
        {
          "inputs": [
            {
              "internalType": "address",
              "name": "truster",
              "type": "address"
            },
            {
              "internalType": "address",
              "name": "trustee",
              "type": "address"
            },
            {
              "internalType": "uint96",
              "name": "expiry",
              "type": "uint96"
            }
          ],
          "name": "setExpiry",
          "outputs": [],
          "stateMutability": "nonpayable",
          "type": "function"
        },
        {
          "inputs": [
            {
              "internalType": "address",
              "name": "truster",
              "type": "address"
            },
            {
              "internalType": "address",
              "name": "trustee",
              "type": "address"
            }
          ],
          "name": "trustMarkers",
          "outputs": [
            {
              "internalType": "address",
              "name": "previous",
              "type": "address"
            },
            {
              "internalType": "uint96",
              "name": "expiry",
              "type": "uint96"
            }
          ],
          "stateMutability": "view",
          "type": "function"
        }
      ],
      "evm": {
        "bytecode": {
          "linkReferences": {},
          "object": "6080604052348015600f57600080fd5b506102328061001f6000396000f3fe608060405234801561001057600080fd5b50600436106100415760003560e01c80635579394a146100465780637cd0cea614610094578063e0249021146100ff575b600080fd5b610077610054366004610176565b60006020818152928152604080822090935290815220546001600160601b031681565b6040516001600160601b0390911681526020015b60405180910390f35b6100d86100a2366004610176565b6001600160a01b038083166000908152602081815260408083209385168352929052908120546001600160601b03169250929050565b604080516001600160a01b0390931683526001600160601b0390911660208301520161008b565b61015861010d3660046101a9565b6001600160a01b039283166000908152602081815260408083209490951682529290925291902080546bffffffffffffffffffffffff19166001600160601b03909216919091179055565b005b80356001600160a01b038116811461017157600080fd5b919050565b6000806040838503121561018957600080fd5b6101928361015a565b91506101a06020840161015a565b90509250929050565b6000806000606084860312156101be57600080fd5b6101c78461015a565b92506101d56020850161015a565b915060408401356001600160601b03811681146101f157600080fd5b80915050925092509256fea2646970667358221220a2eba6eefea2e3dc3d32e1a38243b3e4840981d152f8c1a7c70cfd9b8f868d4d64736f6c634300081c0033",
          "opcodes": "PUSH1 0x80 PUSH1 0x40 MSTORE CALLVALUE DUP1 ISZERO PUSH1 0xF JUMPI PUSH1 0x0 DUP1 REVERT JUMPDEST POP PUSH2 0x232 DUP1 PUSH2 0x1F PUSH1 0x0 CODECOPY PUSH1 0x0 RETURN INVALID PUSH1 0x80 PUSH1 0x40 MSTORE CALLVALUE DUP1 ISZERO PUSH2 0x10 JUMPI PUSH1 0x0 DUP1 REVERT JUMPDEST POP PUSH1 0x4 CALLDATASIZE LT PUSH2 0x41 JUMPI PUSH1 0x0 CALLDATALOAD PUSH1 0xE0 SHR DUP1 PUSH4 0x5579394A EQ PUSH2 0x46 JUMPI DUP1 PUSH4 0x7CD0CEA6 EQ PUSH2 0x94 JUMPI DUP1 PUSH4 0xE0249021 EQ PUSH2 0xFF JUMPI JUMPDEST PUSH1 0x0 DUP1 REVERT JUMPDEST PUSH2 0x77 PUSH2 0x54 CALLDATASIZE PUSH1 0x4 PUSH2 0x176 JUMP JUMPDEST PUSH1 0x0 PUSH1 0x20 DUP2 DUP2 MSTORE SWAP3 DUP2 MSTORE PUSH1 0x40 DUP1 DUP3 KECCAK256 SWAP1 SWAP4 MSTORE SWAP1 DUP2 MSTORE KECCAK256 SLOAD PUSH1 0x1 PUSH1 0x1 PUSH1 0x60 SHL SUB AND DUP2 JUMP JUMPDEST PUSH1 0x40 MLOAD PUSH1 0x1 PUSH1 0x1 PUSH1 0x60 SHL SUB SWAP1 SWAP2 AND DUP2 MSTORE PUSH1 0x20 ADD JUMPDEST PUSH1 0x40 MLOAD DUP1 SWAP2 SUB SWAP1 RETURN JUMPDEST PUSH2 0xD8 PUSH2 0xA2 CALLDATASIZE PUSH1 0x4 PUSH2 0x176 JUMP JUMPDEST PUSH1 0x1 PUSH1 0x1 PUSH1 0xA0 SHL SUB DUP1 DUP4 AND PUSH1 0x0 SWAP1 DUP2 MSTORE PUSH1 0x20 DUP2 DUP2 MSTORE PUSH1 0x40 DUP1 DUP4 KECCAK256 SWAP4 DUP6 AND DUP4 MSTORE SWAP3 SWAP1 MSTORE SWAP1 DUP2 KECCAK256 SLOAD PUSH1 0x1 PUSH1 0x1 PUSH1 0x60 SHL SUB AND SWAP3 POP SWAP3 SWAP1 POP JUMP JUMPDEST PUSH1 0x40 DUP1 MLOAD PUSH1 0x1 PUSH1 0x1 PUSH1 0xA0 SHL SUB SWAP1 SWAP4 AND DUP4 MSTORE PUSH1 0x1 PUSH1 0x1 PUSH1 0x60 SHL SUB SWAP1 SWAP2 AND PUSH1 0x20 DUP4 ADD MSTORE ADD PUSH2 0x8B JUMP JUMPDEST PUSH2 0x158 PUSH2 0x10D CALLDATASIZE PUSH1 0x4 PUSH2 0x1A9 JUMP JUMPDEST PUSH1 0x1 PUSH1 0x1 PUSH1 0xA0 SHL SUB SWAP3 DUP4 AND PUSH1 0x0 SWAP1 DUP2 MSTORE PUSH1 0x20 DUP2 DUP2 MSTORE PUSH1 0x40 DUP1 DUP4 KECCAK256 SWAP5 SWAP1 SWAP6 AND DUP3 MSTORE SWAP3 SWAP1 SWAP3 MSTORE SWAP2 SWAP1 KECCAK256 DUP1 SLOAD PUSH12 0xFFFFFFFFFFFFFFFFFFFFFFFF NOT AND PUSH1 0x1 PUSH1 0x1 PUSH1 0x60 SHL SUB SWAP1 SWAP3 AND SWAP2 SWAP1 SWAP2 OR SWAP1 SSTORE JUMP JUMPDEST STOP JUMPDEST DUP1 CALLDATALOAD PUSH1 0x1 PUSH1 0x1 PUSH1 0xA0 SHL SUB DUP2 AND DUP2 EQ PUSH2 0x171 JUMPI PUSH1 0x0 DUP1 REVERT JUMPDEST SWAP2 SWAP1 POP JUMP JUMPDEST PUSH1 0x0 DUP1 PUSH1 0x40 DUP4 DUP6 SUB SLT ISZERO PUSH2 0x189 JUMPI PUSH1 0x0 DUP1 REVERT JUMPDEST PUSH2 0x192 DUP4 PUSH2 0x15A JUMP JUMPDEST SWAP2 POP PUSH2 0x1A0 PUSH1 0x20 DUP5 ADD PUSH2 0x15A JUMP JUMPDEST SWAP1 POP SWAP3 POP SWAP3 SWAP1 POP JUMP JUMPDEST PUSH1 0x0 DUP1 PUSH1 0x0 PUSH1 0x60 DUP5 DUP7 SUB SLT ISZERO PUSH2 0x1BE JUMPI PUSH1 0x0 DUP1 REVERT JUMPDEST PUSH2 0x1C7 DUP5 PUSH2 0x15A JUMP JUMPDEST SWAP3 POP PUSH2 0x1D5 PUSH1 0x20 DUP6 ADD PUSH2 0x15A JUMP JUMPDEST SWAP2 POP PUSH1 0x40 DUP5 ADD CALLDATALOAD PUSH1 0x1 PUSH1 0x1 PUSH1 0x60 SHL SUB DUP2 AND DUP2 EQ PUSH2 0x1F1 JUMPI PUSH1 0x0 DUP1 REVERT JUMPDEST DUP1 SWAP2 POP POP SWAP3 POP SWAP3 POP SWAP3 JUMP INVALID LOG2 PUSH5 0x6970667358 0x22 SLT KECCAK256 LOG2 0xEB 0xA6 0xEE INVALID LOG2 0xE3 0xDC RETURNDATASIZE ORIGIN 0xE1 LOG3 DUP3 NUMBER 0xB3 0xE4 DUP5 MULMOD DUP2 0xD1 MSTORE 0xF8 0xC1 0xA7 0xC7 0xC REVERT SWAP12 DUP16 DUP7 DUP14 0x4D PUSH5 0x736F6C6343 STOP ADDMOD SHR STOP CALLER "
        },
        "methodIdentifiers": {
          "expiries(address,address)": "5579394a",
          "setExpiry(address,address,uint96)": "e0249021",
          "trustMarkers(address,address)": "7cd0cea6"
        }
      }
    }
  }
}