{
  "contracts/mocks/CoreMembersGroupMock.sol": {
    "CoreMembersGroupMock": {
      "abi": [
        {
          "inputs": [],
          "name": "getLastCalledExpiry",
          "outputs": [
            {
              "internalType": "uint96",
              "name": "",
              "type": "uint96"
            }
          ],
          "stateMutability": "view",
          "type": "function"
        },
        {
          "inputs": [],
          "name": "getLastCalledMembers",
          "outputs": [
            {
              "internalType": "address[]",
              "name": "",
              "type": "address[]"
            }
          ],
          "stateMutability": "view",
          "type": "function"
        },
        {
          "inputs": [],
          "name": "hub",
          "outputs": [
            {
              "internalType": "contract HubMock",
              "name": "",
              "type": "address"
            }
          ],
          "stateMutability": "view",
          "type": "function"
        },
        {
          "inputs": [],
          "name": "lastTrustExpiry",
          "outputs": [
            {
              "internalType": "uint96",
              "name": "",
              "type": "uint96"
            }
          ],
          "stateMutability": "view",
          "type": "function"
        },
        {
          "inputs": [
            {
              "internalType": "uint256",
              "name": "",
              "type": "uint256"
            }
          ],
          "name": "lastTrustedMembers",
          "outputs": [
            {
              "internalType": "address",
              "name": "",
              "type": "address"
            }
          ],
          "stateMutability": "view",
          "type": "function"
        },
        {
          "inputs": [],
          "name": "reset",
          "outputs": [],
          "stateMutability": "nonpayable",
          "type": "function"
        },
        {
          "inputs": [
            {
              "internalType": "address",
              "name": "_hubAddress",
              "type": "address"
            }
          ],
          "name": "setHub",
          "outputs": [],
          "stateMutability": "nonpayable",
          "type": "function"
        },
        {
          "inputs": [],
          "name": "trustBatchWasCalled",
          "outputs": [
            {
              "internalType": "bool",
              "name": "",
              "type": "bool"
            }
          ],
          "stateMutability": "view",
          "type": "function"
        },
        {
          "inputs": [
            {
              "internalType": "address[]",
              "name": "_coreMembers",
              "type": "address[]"
            },
            {
              "internalType": "uint96",
              "name": "_expiry",
              "type": "uint96"
            }
          ],
          "name": "trustBatchWithConditions",
          "outputs": [],
          "stateMutability": "nonpayable",
          "type": "function"
        }
      ],
      "evm": {
        "bytecode": {
          "linkReferences": {},
          "object": "6080604052348015600f57600080fd5b506106608061001f6000396000f3fe608060405234801561001057600080fd5b50600436106100935760003560e01c806363b115df1161006657806363b115df1461012d57806363c47b6c146101585780637be6e9581461016957806387c62e1c14610186578063d826f88f1461019b57600080fd5b806331962cdc14610098578063365a86fc146100d05780634141f95414610107578063443874101461011a575b600080fd5b6100ce6100a636600461047e565b600280546001600160a01b03909216600160601b026001600160601b03909216919091179055565b005b6002546100ea90600160601b90046001600160a01b031681565b6040516001600160a01b0390911681526020015b60405180910390f35b6100ce6101153660046104cd565b6101a3565b6100ea6101283660046105af565b6102f7565b600254610140906001600160601b031681565b6040516001600160601b0390911681526020016100fe565b6004546001600160601b0316610140565b6000546101769060ff1681565b60405190151581526020016100fe565b61018e610321565b6040516100fe91906105c8565b6100ce610383565b6000805460ff1916600190811790915582516101c4919060208501906103c7565b50600280546001600160601b0319166001600160601b03831617905581516101f39060039060208501906103c7565b50600480546001600160601b0319166001600160601b0383161790556002546001600160a01b03600160601b90910416156102f35760005b82518110156102f1576002600c9054906101000a90046001600160a01b03166001600160a01b031663e02490213085848151811061026b5761026b610614565b60209081029190910101516040516001600160e01b031960e085901b1681526001600160a01b039283166004820152911660248201526001600160601b0385166044820152606401600060405180830381600087803b1580156102cd57600080fd5b505af11580156102e1573d6000803e3d6000fd5b50506001909201915061022b9050565b505b5050565b6001818154811061030757600080fd5b6000918252602090912001546001600160a01b0316905081565b6060600380548060200260200160405190810160405280929190818152602001828054801561037957602002820191906000526020600020905b81546001600160a01b0316815260019091019060200180831161035b575b5050505050905090565b6000805460ff191681556103999060019061042c565b600280546001600160601b03191690556103b56003600061042c565b600480546001600160601b0319169055565b82805482825590600052602060002090810192821561041c579160200282015b8281111561041c57825182546001600160a01b0319166001600160a01b039091161782556020909201916001909101906103e7565b5061042892915061044d565b5090565b508054600082559060005260206000209081019061044a919061044d565b50565b5b80821115610428576000815560010161044e565b80356001600160a01b038116811461047957600080fd5b919050565b60006020828403121561049057600080fd5b61049982610462565b9392505050565b634e487b7160e01b600052604160045260246000fd5b80356001600160601b038116811461047957600080fd5b600080604083850312156104e057600080fd5b823567ffffffffffffffff8111156104f757600080fd5b8301601f8101851361050857600080fd5b803567ffffffffffffffff811115610522576105226104a0565b8060051b604051601f19603f830116810181811067ffffffffffffffff8211171561054f5761054f6104a0565b60405291825260208184018101929081018884111561056d57600080fd5b6020850194505b838510156105935761058585610462565b815260209485019401610574565b5094506105a692505050602084016104b6565b90509250929050565b6000602082840312156105c157600080fd5b5035919050565b602080825282518282018190526000918401906040840190835b818110156106095783516001600160a01b03168352602093840193909201916001016105e2565b509095945050505050565b634e487b7160e01b600052603260045260246000fdfea2646970667358221220d06f693e63813db61797de4659976af0bd62e6567c2e447bd84119885aaa412764736f6c634300081c0033",
          "opcodes": "PUSH1 0x80 PUSH1 0x40 MSTORE CALLVALUE DUP1 ISZERO PUSH1 0xF JUMPI PUSH1 0x0 DUP1 REVERT JUMPDEST POP PUSH2 0x660 DUP1 PUSH2 0x1F PUSH1 0x0 CODECOPY PUSH1 0x0 RETURN INVALID PUSH1 0x80 PUSH1 0x40 MSTORE CALLVALUE DUP1 ISZERO PUSH2 0x10 JUMPI PUSH1 0x0 DUP1 REVERT JUMPDEST POP PUSH1 0x4 CALLDATASIZE LT PUSH2 0x93 JUMPI PUSH1 0x0 CALLDATALOAD PUSH1 0xE0 SHR DUP1 PUSH4 0x63B115DF GT PUSH2 0x66 JUMPI DUP1 PUSH4 0x63B115DF EQ PUSH2 0x12D JUMPI DUP1 PUSH4 0x63C47B6C EQ PUSH2 0x158 JUMPI DUP1 PUSH4 0x7BE6E958 EQ PUSH2 0x169 JUMPI DUP1 PUSH4 0x87C62E1C EQ PUSH2 0x186 JUMPI DUP1 PUSH4 0xD826F88F EQ PUSH2 0x19B JUMPI PUSH1 0x0 DUP1 REVERT JUMPDEST DUP1 PUSH4 0x31962CDC EQ PUSH2 0x98 JUMPI DUP1 PUSH4 0x365A86FC EQ PUSH2 0xD0 JUMPI DUP1 PUSH4 0x4141F954 EQ PUSH2 0x107 JUMPI DUP1 PUSH4 0x44387410 EQ PUSH2 0x11A JUMPI JUMPDEST PUSH1 0x0 DUP1 REVERT JUMPDEST PUSH2 0xCE PUSH2 0xA6 CALLDATASIZE PUSH1 0x4 PUSH2 0x47E JUMP JUMPDEST PUSH1 0x2 DUP1 SLOAD PUSH1 0x1 PUSH1 0x1 PUSH1 0xA0 SHL SUB SWAP1 SWAP3 AND PUSH1 0x1 PUSH1 0x60 SHL MUL PUSH1 0x1 PUSH1 0x1 PUSH1 0x60 SHL SUB SWAP1 SWAP3 AND SWAP2 SWAP1 SWAP2 OR SWAP1 SSTORE JUMP JUMPDEST STOP JUMPDEST PUSH1 0x2 SLOAD PUSH2 0xEA SWAP1 PUSH1 0x1 PUSH1 0x60 SHL SWAP1 DIV PUSH1 0x1 PUSH1 0x1 PUSH1 0xA0 SHL SUB AND DUP2 JUMP JUMPDEST PUSH1 0x40 MLOAD PUSH1 0x1 PUSH1 0x1 PUSH1 0xA0 SHL SUB SWAP1 SWAP2 AND DUP2 MSTORE PUSH1 0x20 ADD JUMPDEST PUSH1 0x40 MLOAD DUP1 SWAP2 SUB SWAP1 RETURN JUMPDEST PUSH2 0xCE PUSH2 0x115 CALLDATASIZE PUSH1 0x4 PUSH2 0x4CD JUMP JUMPDEST PUSH2 0x1A3 JUMP JUMPDEST PUSH2 0xEA PUSH2 0x128 CALLDATASIZE PUSH1 0x4 PUSH2 0x5AF JUMP JUMPDEST PUSH2 0x2F7 JUMP JUMPDEST PUSH1 0x2 SLOAD PUSH2 0x140 SWAP1 PUSH1 0x1 PUSH1 0x1 PUSH1 0x60 SHL SUB AND DUP2 JUMP JUMPDEST PUSH1 0x40 MLOAD PUSH1 0x1 PUSH1 0x1 PUSH1 0x60 SHL SUB SWAP1 SWAP2 AND DUP2 MSTORE PUSH1 0x20 ADD PUSH2 0xFE JUMP JUMPDEST PUSH1 0x4 SLOAD PUSH1 0x1 PUSH1 0x1 PUSH1 0x60 SHL SUB AND PUSH2 0x140 JUMP JUMPDEST PUSH1 0x0 SLOAD PUSH2 0x176 SWAP1 PUSH1 0xFF AND DUP2 JUMP JUMPDEST PUSH1 0x40 MLOAD SWAP1 ISZERO ISZERO DUP2 MSTORE PUSH1 0x20 ADD PUSH2 0xFE JUMP JUMPDEST PUSH2 0x18E PUSH2 0x321 JUMP JUMPDEST PUSH1 0x40 MLOAD PUSH2 0xFE SWAP2 SWAP1 PUSH2 0x5C8 JUMP JUMPDEST PUSH2 0xCE PUSH2 0x383 JUMP JUMPDEST PUSH1 0x0 DUP1 SLOAD PUSH1 0xFF NOT AND PUSH1 0x1 SWAP1 DUP2 OR SWAP1 SWAP2 SSTORE DUP3 MLOAD PUSH2 0x1C4 SWAP2 SWAP1 PUSH1 0x20 DUP6 ADD SWAP1 PUSH2 0x3C7 JUMP JUMPDEST POP PUSH1 0x2 DUP1 SLOAD PUSH1 0x1 PUSH1 0x1 PUSH1 0x60 SHL SUB NOT AND PUSH1 0x1 PUSH1 0x1 PUSH1 0x60 SHL SUB DUP4 AND OR SWAP1 SSTORE DUP2 MLOAD PUSH2 0x1F3 SWAP1 PUSH1 0x3 SWAP1 PUSH1 0x20 DUP6 ADD SWAP1 PUSH2 0x3C7 JUMP JUMPDEST POP PUSH1 0x4 DUP1 SLOAD PUSH1 0x1 PUSH1 0x1 PUSH1 0x60 SHL SUB NOT AND PUSH1 0x1 PUSH1 0x1 PUSH1 0x60 SHL SUB DUP4 AND OR SWAP1 SSTORE PUSH1 0x2 SLOAD PUSH1 0x1 PUSH1 0x1 PUSH1 0xA0 SHL SUB PUSH1 0x1 PUSH1 0x60 SHL SWAP1 SWAP2 DIV AND ISZERO PUSH2 0x2F3 JUMPI PUSH1 0x0 JUMPDEST DUP3 MLOAD DUP2 LT ISZERO PUSH2 0x2F1 JUMPI PUSH1 0x2 PUSH1 0xC SWAP1 SLOAD SWAP1 PUSH2 0x100 EXP SWAP1 DIV PUSH1 0x1 PUSH1 0x1 PUSH1 0xA0 SHL SUB AND PUSH1 0x1 PUSH1 0x1 PUSH1 0xA0 SHL SUB AND PUSH4 0xE0249021 ADDRESS DUP6 DUP5 DUP2 MLOAD DUP2 LT PUSH2 0x26B JUMPI PUSH2 0x26B PUSH2 0x614 JUMP JUMPDEST PUSH1 0x20 SWAP1 DUP2 MUL SWAP2 SWAP1 SWAP2 ADD ADD MLOAD PUSH1 0x40 MLOAD PUSH1 0x1 PUSH1 0x1 PUSH1 0xE0 SHL SUB NOT PUSH1 0xE0 DUP6 SWAP1 SHL AND DUP2 MSTORE PUSH1 0x1 PUSH1 0x1 PUSH1 0xA0 SHL SUB SWAP3 DUP4 AND PUSH1 0x4 DUP3 ADD MSTORE SWAP2 AND PUSH1 0x24 DUP3 ADD MSTORE PUSH1 0x1 PUSH1 0x1 PUSH1 0x60 SHL SUB DUP6 AND PUSH1 0x44 DUP3 ADD MSTORE PUSH1 0x64 ADD PUSH1 0x0 PUSH1 0x40 MLOAD DUP1 DUP4 SUB DUP2 PUSH1 0x0 DUP8 DUP1 EXTCODESIZE ISZERO DUP1 ISZERO PUSH2 0x2CD JUMPI PUSH1 0x0 DUP1 REVERT JUMPDEST POP GAS CALL ISZERO DUP1 ISZERO PUSH2 0x2E1 JUMPI RETURNDATASIZE PUSH1 0x0 DUP1 RETURNDATACOPY RETURNDATASIZE PUSH1 0x0 REVERT JUMPDEST POP POP PUSH1 0x1 SWAP1 SWAP3 ADD SWAP2 POP PUSH2 0x22B SWAP1 POP JUMP JUMPDEST POP JUMPDEST POP POP JUMP JUMPDEST PUSH1 0x1 DUP2 DUP2 SLOAD DUP2 LT PUSH2 0x307 JUMPI PUSH1 0x0 DUP1 REVERT JUMPDEST PUSH1 0x0 SWAP2 DUP3 MSTORE PUSH1 0x20 SWAP1 SWAP2 KECCAK256 ADD SLOAD PUSH1 0x1 PUSH1 0x1 PUSH1 0xA0 SHL SUB AND SWAP1 POP DUP2 JUMP JUMPDEST PUSH1 0x60 PUSH1 0x3 DUP1 SLOAD DUP1 PUSH1 0x20 MUL PUSH1 0x20 ADD PUSH1 0x40 MLOAD SWAP1 DUP2 ADD PUSH1 0x40 MSTORE DUP1 SWAP3 SWAP2 SWAP1 DUP2 DUP2 MSTORE PUSH1 0x20 ADD DUP3 DUP1 SLOAD DUP1 ISZERO PUSH2 0x379 JUMPI PUSH1 0x20 MUL DUP3 ADD SWAP2 SWAP1 PUSH1 0x0 MSTORE PUSH1 0x20 PUSH1 0x0 KECCAK256 SWAP1 JUMPDEST DUP2 SLOAD PUSH1 0x1 PUSH1 0x1 PUSH1 0xA0 SHL SUB AND DUP2 MSTORE PUSH1 0x1 SWAP1 SWAP2 ADD SWAP1 PUSH1 0x20 ADD DUP1 DUP4 GT PUSH2 0x35B JUMPI JUMPDEST POP POP POP POP POP SWAP1 POP SWAP1 JUMP JUMPDEST PUSH1 0x0 DUP1 SLOAD PUSH1 0xFF NOT AND DUP2 SSTORE PUSH2 0x399 SWAP1 PUSH1 0x1 SWAP1 PUSH2 0x42C JUMP JUMPDEST PUSH1 0x2 DUP1 SLOAD PUSH1 0x1 PUSH1 0x1 PUSH1 0x60 SHL SUB NOT AND SWAP1 SSTORE PUSH2 0x3B5 PUSH1 0x3 PUSH1 0x0 PUSH2 0x42C JUMP JUMPDEST PUSH1 0x4 DUP1 SLOAD PUSH1 0x1 PUSH1 0x1 PUSH1 0x60 SHL SUB NOT AND SWAP1 SSTORE JUMP JUMPDEST DUP3 DUP1 SLOAD DUP3 DUP3 SSTORE SWAP1 PUSH1 0x0 MSTORE PUSH1 0x20 PUSH1 0x0 KECCAK256 SWAP1 DUP2 ADD SWAP3 DUP3 ISZERO PUSH2 0x41C JUMPI SWAP2 PUSH1 0x20 MUL DUP3 ADD JUMPDEST DUP3 DUP2 GT ISZERO PUSH2 0x41C JUMPI DUP3 MLOAD DUP3 SLOAD PUSH1 0x1 PUSH1 0x1 PUSH1 0xA0 SHL SUB NOT AND PUSH1 0x1 PUSH1 0x1 PUSH1 0xA0 SHL SUB SWAP1 SWAP2 AND OR DUP3 SSTORE PUSH1 0x20 SWAP1 SWAP3 ADD SWAP2 PUSH1 0x1 SWAP1 SWAP2 ADD SWAP1 PUSH2 0x3E7 JUMP JUMPDEST POP PUSH2 0x428 SWAP3 SWAP2 POP PUSH2 0x44D JUMP JUMPDEST POP SWAP1 JUMP JUMPDEST POP DUP1 SLOAD PUSH1 0x0 DUP3 SSTORE SWAP1 PUSH1 0x0 MSTORE PUSH1 0x20 PUSH1 0x0 KECCAK256 SWAP1 DUP2 ADD SWAP1 PUSH2 0x44A SWAP2 SWAP1 PUSH2 0x44D JUMP JUMPDEST POP JUMP JUMPDEST JUMPDEST DUP1 DUP3 GT ISZERO PUSH2 0x428 JUMPI PUSH1 0x0 DUP2 SSTORE PUSH1 0x1 ADD PUSH2 0x44E JUMP JUMPDEST DUP1 CALLDATALOAD PUSH1 0x1 PUSH1 0x1 PUSH1 0xA0 SHL SUB DUP2 AND DUP2 EQ PUSH2 0x479 JUMPI PUSH1 0x0 DUP1 REVERT JUMPDEST SWAP2 SWAP1 POP JUMP JUMPDEST PUSH1 0x0 PUSH1 0x20 DUP3 DUP5 SUB SLT ISZERO PUSH2 0x490 JUMPI PUSH1 0x0 DUP1 REVERT JUMPDEST PUSH2 0x499 DUP3 PUSH2 0x462 JUMP JUMPDEST SWAP4 SWAP3 POP POP POP JUMP JUMPDEST PUSH4 0x4E487B71 PUSH1 0xE0 SHL PUSH1 0x0 MSTORE PUSH1 0x41 PUSH1 0x4 MSTORE PUSH1 0x24 PUSH1 0x0 REVERT JUMPDEST DUP1 CALLDATALOAD PUSH1 0x1 PUSH1 0x1 PUSH1 0x60 SHL SUB DUP2 AND DUP2 EQ PUSH2 0x479 JUMPI PUSH1 0x0 DUP1 REVERT JUMPDEST PUSH1 0x0 DUP1 PUSH1 0x40 DUP4 DUP6 SUB SLT ISZERO PUSH2 0x4E0 JUMPI PUSH1 0x0 DUP1 REVERT JUMPDEST DUP3 CALLDATALOAD PUSH8 0xFFFFFFFFFFFFFFFF DUP2 GT ISZERO PUSH2 0x4F7 JUMPI PUSH1 0x0 DUP1 REVERT JUMPDEST DUP4 ADD PUSH1 0x1F DUP2 ADD DUP6 SGT PUSH2 0x508 JUMPI PUSH1 0x0 DUP1 REVERT JUMPDEST DUP1 CALLDATALOAD PUSH8 0xFFFFFFFFFFFFFFFF DUP2 GT ISZERO PUSH2 0x522 JUMPI PUSH2 0x522 PUSH2 0x4A0 JUMP JUMPDEST DUP1 PUSH1 0x5 SHL PUSH1 0x40 MLOAD PUSH1 0x1F NOT PUSH1 0x3F DUP4 ADD AND DUP2 ADD DUP2 DUP2 LT PUSH8 0xFFFFFFFFFFFFFFFF DUP3 GT OR ISZERO PUSH2 0x54F JUMPI PUSH2 0x54F PUSH2 0x4A0 JUMP JUMPDEST PUSH1 0x40 MSTORE SWAP2 DUP3 MSTORE PUSH1 0x20 DUP2 DUP5 ADD DUP2 ADD SWAP3 SWAP1 DUP2 ADD DUP9 DUP5 GT ISZERO PUSH2 0x56D JUMPI PUSH1 0x0 DUP1 REVERT JUMPDEST PUSH1 0x20 DUP6 ADD SWAP5 POP JUMPDEST DUP4 DUP6 LT ISZERO PUSH2 0x593 JUMPI PUSH2 0x585 DUP6 PUSH2 0x462 JUMP JUMPDEST DUP2 MSTORE PUSH1 0x20 SWAP5 DUP6 ADD SWAP5 ADD PUSH2 0x574 JUMP JUMPDEST POP SWAP5 POP PUSH2 0x5A6 SWAP3 POP POP POP PUSH1 0x20 DUP5 ADD PUSH2 0x4B6 JUMP JUMPDEST SWAP1 POP SWAP3 POP SWAP3 SWAP1 POP JUMP JUMPDEST PUSH1 0x0 PUSH1 0x20 DUP3 DUP5 SUB SLT ISZERO PUSH2 0x5C1 JUMPI PUSH1 0x0 DUP1 REVERT JUMPDEST POP CALLDATALOAD SWAP2 SWAP1 POP JUMP JUMPDEST PUSH1 0x20 DUP1 DUP3 MSTORE DUP3 MLOAD DUP3 DUP3 ADD DUP2 SWAP1 MSTORE PUSH1 0x0 SWAP2 DUP5 ADD SWAP1 PUSH1 0x40 DUP5 ADD SWAP1 DUP4 JUMPDEST DUP2 DUP2 LT ISZERO PUSH2 0x609 JUMPI DUP4 MLOAD PUSH1 0x1 PUSH1 0x1 PUSH1 0xA0 SHL SUB AND DUP4 MSTORE PUSH1 0x20 SWAP4 DUP5 ADD SWAP4 SWAP1 SWAP3 ADD SWAP2 PUSH1 0x1 ADD PUSH2 0x5E2 JUMP JUMPDEST POP SWAP1 SWAP6 SWAP5 POP POP POP POP POP JUMP JUMPDEST PUSH4 0x4E487B71 PUSH1 0xE0 SHL PUSH1 0x0 MSTORE PUSH1 0x32 PUSH1 0x4 MSTORE PUSH1 0x24 PUSH1 0x0 REVERT INVALID LOG2 PUSH5 0x6970667358 0x22 SLT KECCAK256 0xD0 PUSH16 0x693E63813DB61797DE4659976AF0BD62 0xE6 JUMP PUSH29 0x2E447BD84119885AAA412764736F6C634300081C003300000000000000 "
        },
        "methodIdentifiers": {
          "getLastCalledExpiry()": "63c47b6c",
          "getLastCalledMembers()": "87c62e1c",
          "hub()": "365a86fc",
          "lastTrustExpiry()": "63b115df",
          "lastTrustedMembers(uint256)": "44387410",
          "reset()": "d826f88f",
          "setHub(address)": "31962cdc",
          "trustBatchWasCalled()": "7be6e958",
          "trustBatchWithConditions(address[],uint96)": "4141f954"
        }
      }
    }
  }
}