{
  "contracts/mocks/ProofOfHumanityMock.sol": {
    "ProofOfHumanityMock": {
      "abi": [
        {
          "inputs": [
            {
              "internalType": "bytes20",
              "name": "_humanityId",
              "type": "bytes20"
            }
          ],
          "name": "getHumanityInfo",
          "outputs": [
            {
              "internalType": "bool",
              "name": "vouching",
              "type": "bool"
            },
            {
              "internalType": "bool",
              "name": "pendingRevocation",
              "type": "bool"
            },
            {
              "internalType": "uint48",
              "name": "nbPendingRequests",
              "type": "uint48"
            },
            {
              "internalType": "uint40",
              "name": "expirationTime",
              "type": "uint40"
            },
            {
              "internalType": "address",
              "name": "owner",
              "type": "address"
            },
            {
              "internalType": "uint256",
              "name": "nbRequests",
              "type": "uint256"
            }
          ],
          "stateMutability": "view",
          "type": "function"
        },
        {
          "inputs": [
            {
              "internalType": "address",
              "name": "_address",
              "type": "address"
            }
          ],
          "name": "isHuman",
          "outputs": [
            {
              "internalType": "bool",
              "name": "",
              "type": "bool"
            }
          ],
          "stateMutability": "view",
          "type": "function"
        },
        {
          "inputs": [
            {
              "internalType": "bytes20",
              "name": "_humanityId",
              "type": "bytes20"
            },
            {
              "components": [
                {
                  "internalType": "bool",
                  "name": "vouching",
                  "type": "bool"
                },
                {
                  "internalType": "bool",
                  "name": "pendingRevocation",
                  "type": "bool"
                },
                {
                  "internalType": "uint48",
                  "name": "nbPendingRequests",
                  "type": "uint48"
                },
                {
                  "internalType": "uint40",
                  "name": "expirationTime",
                  "type": "uint40"
                },
                {
                  "internalType": "address",
                  "name": "owner",
                  "type": "address"
                },
                {
                  "internalType": "uint256",
                  "name": "nbRequests",
                  "type": "uint256"
                }
              ],
              "internalType": "struct ProofOfHumanityMock.HumanityInfo",
              "name": "_info",
              "type": "tuple"
            }
          ],
          "name": "mockGetHumanityInfo",
          "outputs": [],
          "stateMutability": "nonpayable",
          "type": "function"
        },
        {
          "inputs": [
            {
              "internalType": "address",
              "name": "_account",
              "type": "address"
            },
            {
              "internalType": "bytes20",
              "name": "_humanityId",
              "type": "bytes20"
            }
          ],
          "name": "mockHumanityOf",
          "outputs": [],
          "stateMutability": "nonpayable",
          "type": "function"
        },
        {
          "inputs": [
            {
              "internalType": "address",
              "name": "_address",
              "type": "address"
            },
            {
              "internalType": "bool",
              "name": "_status",
              "type": "bool"
            }
          ],
          "name": "mockIsHuman",
          "outputs": [],
          "stateMutability": "nonpayable",
          "type": "function"
        }
      ],
      "evm": {
        "bytecode": {
          "linkReferences": {},
          "object": "6080604052348015600f57600080fd5b506104f38061001f6000396000f3fe608060405234801561001057600080fd5b50600436106100575760003560e01c806368c3d8ff1461005c5780636b2611fa14610152578063c9065dee14610196578063d1c1f55514610274578063f72c436f146102ad575b600080fd5b61010261006a366004610306565b6001600160601b031916600090815260036020908152604091829020825160c081018452815460ff80821615158084526101008304909116151594830185905262010000820465ffffffffffff16958301869052600160401b90910464ffffffffff166060830181905260018401546001600160a01b03166080840181905260029094015460a0909301839052909593949390929190565b604080519615158752941515602087015265ffffffffffff9093169385019390935264ffffffffff1660608401526001600160a01b03909116608083015260a082015260c0015b60405180910390f35b61019461016036600461033f565b6001600160a01b0391909116600090815260026020526040902080546001600160a01b03191660609290921c919091179055565b005b6101946101a43660046103ad565b6001600160601b031991909116600090815260036020908152604091829020835181549285015193850151606086015161ffff1990941691151561ff0019169190911761010094151594909402939093176cffffffffffffffffffffff000019166201000065ffffffffffff909416939093026cffffffffff0000000000000000191692909217600160401b64ffffffffff9092169190910217815560808201516001820180546001600160a01b0319166001600160a01b0390921691909117905560a090910151600290910155565b610194610282366004610478565b6001600160a01b03919091166000908152602081905260409020805460ff1916911515919091179055565b6102d96102bb3660046104a2565b6001600160a01b031660009081526020819052604090205460ff1690565b6040519015158152602001610149565b80356001600160601b03198116811461030157600080fd5b919050565b60006020828403121561031857600080fd5b610321826102e9565b9392505050565b80356001600160a01b038116811461030157600080fd5b6000806040838503121561035257600080fd5b61035b83610328565b9150610369602084016102e9565b90509250929050565b8035801515811461030157600080fd5b803565ffffffffffff8116811461030157600080fd5b803564ffffffffff8116811461030157600080fd5b60008082840360e08112156103c157600080fd5b6103ca846102e9565b925060c0601f19820112156103de57600080fd5b5060405160c0810181811067ffffffffffffffff8211171561041057634e487b7160e01b600052604160045260246000fd5b60405261041f60208501610372565b815261042d60408501610372565b602082015261043e60608501610382565b604082015261044f60808501610398565b606082015261046060a08501610328565b608082015260c0939093013560a08401525092909150565b6000806040838503121561048b57600080fd5b61049483610328565b915061036960208401610372565b6000602082840312156104b457600080fd5b6103218261032856fea2646970667358221220a4fae23a0e61f62e994917300fe0e22d93f69711730721cd0120cf42bf828a6564736f6c634300081c0033",
          "opcodes": "PUSH1 0x80 PUSH1 0x40 MSTORE CALLVALUE DUP1 ISZERO PUSH1 0xF JUMPI PUSH1 0x0 DUP1 REVERT JUMPDEST POP PUSH2 0x4F3 DUP1 PUSH2 0x1F PUSH1 0x0 CODECOPY PUSH1 0x0 RETURN INVALID PUSH1 0x80 PUSH1 0x40 MSTORE CALLVALUE DUP1 ISZERO PUSH2 0x10 JUMPI PUSH1 0x0 DUP1 REVERT JUMPDEST POP PUSH1 0x4 CALLDATASIZE LT PUSH2 0x57 JUMPI PUSH1 0x0 CALLDATALOAD PUSH1 0xE0 SHR DUP1 PUSH4 0x68C3D8FF EQ PUSH2 0x5C JUMPI DUP1 PUSH4 0x6B2611FA EQ PUSH2 0x152 JUMPI DUP1 PUSH4 0xC9065DEE EQ PUSH2 0x196 JUMPI DUP1 PUSH4 0xD1C1F555 EQ PUSH2 0x274 JUMPI DUP1 PUSH4 0xF72C436F EQ PUSH2 0x2AD JUMPI JUMPDEST PUSH1 0x0 DUP1 REVERT JUMPDEST PUSH2 0x102 PUSH2 0x6A CALLDATASIZE PUSH1 0x4 PUSH2 0x306 JUMP JUMPDEST PUSH1 0x1 PUSH1 0x1 PUSH1 0x60 SHL SUB NOT AND PUSH1 0x0 SWAP1 DUP2 MSTORE PUSH1 0x3 PUSH1 0x20 SWAP1 DUP2 MSTORE PUSH1 0x40 SWAP2 DUP3 SWAP1 KECCAK256 DUP3 MLOAD PUSH1 0xC0 DUP2 ADD DUP5 MSTORE DUP2 SLOAD PUSH1 0xFF DUP1 DUP3 AND ISZERO ISZERO DUP1 DUP5 MSTORE PUSH2 0x100 DUP4 DIV SWAP1 SWAP2 AND ISZERO ISZERO SWAP5 DUP4 ADD DUP6 SWAP1 MSTORE PUSH3 0x10000 DUP3 DIV PUSH6 0xFFFFFFFFFFFF AND SWAP6 DUP4 ADD DUP7 SWAP1 MSTORE PUSH1 0x1 PUSH1 0x40 SHL SWAP1 SWAP2 DIV PUSH5 0xFFFFFFFFFF AND PUSH1 0x60 DUP4 ADD DUP2 SWAP1 MSTORE PUSH1 0x1 DUP5 ADD SLOAD PUSH1 0x1 PUSH1 0x1 PUSH1 0xA0 SHL SUB AND PUSH1 0x80 DUP5 ADD DUP2 SWAP1 MSTORE PUSH1 0x2 SWAP1 SWAP5 ADD SLOAD PUSH1 0xA0 SWAP1 SWAP4 ADD DUP4 SWAP1 MSTORE SWAP1 SWAP6 SWAP4 SWAP5 SWAP4 SWAP1 SWAP3 SWAP2 SWAP1 JUMP JUMPDEST PUSH1 0x40 DUP1 MLOAD SWAP7 ISZERO ISZERO DUP8 MSTORE SWAP5 ISZERO ISZERO PUSH1 0x20 DUP8 ADD MSTORE PUSH6 0xFFFFFFFFFFFF SWAP1 SWAP4 AND SWAP4 DUP6 ADD SWAP4 SWAP1 SWAP4 MSTORE PUSH5 0xFFFFFFFFFF AND PUSH1 0x60 DUP5 ADD MSTORE PUSH1 0x1 PUSH1 0x1 PUSH1 0xA0 SHL SUB SWAP1 SWAP2 AND PUSH1 0x80 DUP4 ADD MSTORE PUSH1 0xA0 DUP3 ADD MSTORE PUSH1 0xC0 ADD JUMPDEST PUSH1 0x40 MLOAD DUP1 SWAP2 SUB SWAP1 RETURN JUMPDEST PUSH2 0x194 PUSH2 0x160 CALLDATASIZE PUSH1 0x4 PUSH2 0x33F JUMP JUMPDEST PUSH1 0x1 PUSH1 0x1 PUSH1 0xA0 SHL SUB SWAP2 SWAP1 SWAP2 AND PUSH1 0x0 SWAP1 DUP2 MSTORE PUSH1 0x2 PUSH1 0x20 MSTORE PUSH1 0x40 SWAP1 KECCAK256 DUP1 SLOAD PUSH1 0x1 PUSH1 0x1 PUSH1 0xA0 SHL SUB NOT AND PUSH1 0x60 SWAP3 SWAP1 SWAP3 SHR SWAP2 SWAP1 SWAP2 OR SWAP1 SSTORE JUMP JUMPDEST STOP JUMPDEST PUSH2 0x194 PUSH2 0x1A4 CALLDATASIZE PUSH1 0x4 PUSH2 0x3AD JUMP JUMPDEST PUSH1 0x1 PUSH1 0x1 PUSH1 0x60 SHL SUB NOT SWAP2 SWAP1 SWAP2 AND PUSH1 0x0 SWAP1 DUP2 MSTORE PUSH1 0x3 PUSH1 0x20 SWAP1 DUP2 MSTORE PUSH1 0x40 SWAP2 DUP3 SWAP1 KECCAK256 DUP4 MLOAD DUP2 SLOAD SWAP3 DUP6 ADD MLOAD SWAP4 DUP6 ADD MLOAD PUSH1 0x60 DUP7 ADD MLOAD PUSH2 0xFFFF NOT SWAP1 SWAP5 AND SWAP2 ISZERO ISZERO PUSH2 0xFF00 NOT AND SWAP2 SWAP1 SWAP2 OR PUSH2 0x100 SWAP5 ISZERO ISZERO SWAP5 SWAP1 SWAP5 MUL SWAP4 SWAP1 SWAP4 OR PUSH13 0xFFFFFFFFFFFFFFFFFFFFFF0000 NOT AND PUSH3 0x10000 PUSH6 0xFFFFFFFFFFFF SWAP1 SWAP5 AND SWAP4 SWAP1 SWAP4 MUL PUSH13 0xFFFFFFFFFF0000000000000000 NOT AND SWAP3 SWAP1 SWAP3 OR PUSH1 0x1 PUSH1 0x40 SHL PUSH5 0xFFFFFFFFFF SWAP1 SWAP3 AND SWAP2 SWAP1 SWAP2 MUL OR DUP2 SSTORE PUSH1 0x80 DUP3 ADD MLOAD PUSH1 0x1 DUP3 ADD DUP1 SLOAD PUSH1 0x1 PUSH1 0x1 PUSH1 0xA0 SHL SUB NOT AND PUSH1 0x1 PUSH1 0x1 PUSH1 0xA0 SHL SUB SWAP1 SWAP3 AND SWAP2 SWAP1 SWAP2 OR SWAP1 SSTORE PUSH1 0xA0 SWAP1 SWAP2 ADD MLOAD PUSH1 0x2 SWAP1 SWAP2 ADD SSTORE JUMP JUMPDEST PUSH2 0x194 PUSH2 0x282 CALLDATASIZE PUSH1 0x4 PUSH2 0x478 JUMP JUMPDEST PUSH1 0x1 PUSH1 0x1 PUSH1 0xA0 SHL SUB SWAP2 SWAP1 SWAP2 AND PUSH1 0x0 SWAP1 DUP2 MSTORE PUSH1 0x20 DUP2 SWAP1 MSTORE PUSH1 0x40 SWAP1 KECCAK256 DUP1 SLOAD PUSH1 0xFF NOT AND SWAP2 ISZERO ISZERO SWAP2 SWAP1 SWAP2 OR SWAP1 SSTORE JUMP JUMPDEST PUSH2 0x2D9 PUSH2 0x2BB CALLDATASIZE PUSH1 0x4 PUSH2 0x4A2 JUMP JUMPDEST PUSH1 0x1 PUSH1 0x1 PUSH1 0xA0 SHL SUB AND PUSH1 0x0 SWAP1 DUP2 MSTORE PUSH1 0x20 DUP2 SWAP1 MSTORE PUSH1 0x40 SWAP1 KECCAK256 SLOAD PUSH1 0xFF AND SWAP1 JUMP JUMPDEST PUSH1 0x40 MLOAD SWAP1 ISZERO ISZERO DUP2 MSTORE PUSH1 0x20 ADD PUSH2 0x149 JUMP JUMPDEST DUP1 CALLDATALOAD PUSH1 0x1 PUSH1 0x1 PUSH1 0x60 SHL SUB NOT DUP2 AND DUP2 EQ PUSH2 0x301 JUMPI PUSH1 0x0 DUP1 REVERT JUMPDEST SWAP2 SWAP1 POP JUMP JUMPDEST PUSH1 0x0 PUSH1 0x20 DUP3 DUP5 SUB SLT ISZERO PUSH2 0x318 JUMPI PUSH1 0x0 DUP1 REVERT JUMPDEST PUSH2 0x321 DUP3 PUSH2 0x2E9 JUMP JUMPDEST SWAP4 SWAP3 POP POP POP JUMP JUMPDEST DUP1 CALLDATALOAD PUSH1 0x1 PUSH1 0x1 PUSH1 0xA0 SHL SUB DUP2 AND DUP2 EQ PUSH2 0x301 JUMPI PUSH1 0x0 DUP1 REVERT JUMPDEST PUSH1 0x0 DUP1 PUSH1 0x40 DUP4 DUP6 SUB SLT ISZERO PUSH2 0x352 JUMPI PUSH1 0x0 DUP1 REVERT JUMPDEST PUSH2 0x35B DUP4 PUSH2 0x328 JUMP JUMPDEST SWAP2 POP PUSH2 0x369 PUSH1 0x20 DUP5 ADD PUSH2 0x2E9 JUMP JUMPDEST SWAP1 POP SWAP3 POP SWAP3 SWAP1 POP JUMP JUMPDEST DUP1 CALLDATALOAD DUP1 ISZERO ISZERO DUP2 EQ PUSH2 0x301 JUMPI PUSH1 0x0 DUP1 REVERT JUMPDEST DUP1 CALLDATALOAD PUSH6 0xFFFFFFFFFFFF DUP2 AND DUP2 EQ PUSH2 0x301 JUMPI PUSH1 0x0 DUP1 REVERT JUMPDEST DUP1 CALLDATALOAD PUSH5 0xFFFFFFFFFF DUP2 AND DUP2 EQ PUSH2 0x301 JUMPI PUSH1 0x0 DUP1 REVERT JUMPDEST PUSH1 0x0 DUP1 DUP3 DUP5 SUB PUSH1 0xE0 DUP2 SLT ISZERO PUSH2 0x3C1 JUMPI PUSH1 0x0 DUP1 REVERT JUMPDEST PUSH2 0x3CA DUP5 PUSH2 0x2E9 JUMP JUMPDEST SWAP3 POP PUSH1 0xC0 PUSH1 0x1F NOT DUP3 ADD SLT ISZERO PUSH2 0x3DE JUMPI PUSH1 0x0 DUP1 REVERT JUMPDEST POP PUSH1 0x40 MLOAD PUSH1 0xC0 DUP2 ADD DUP2 DUP2 LT PUSH8 0xFFFFFFFFFFFFFFFF DUP3 GT OR ISZERO PUSH2 0x410 JUMPI PUSH4 0x4E487B71 PUSH1 0xE0 SHL PUSH1 0x0 MSTORE PUSH1 0x41 PUSH1 0x4 MSTORE PUSH1 0x24 PUSH1 0x0 REVERT JUMPDEST PUSH1 0x40 MSTORE PUSH2 0x41F PUSH1 0x20 DUP6 ADD PUSH2 0x372 JUMP JUMPDEST DUP2 MSTORE PUSH2 0x42D PUSH1 0x40 DUP6 ADD PUSH2 0x372 JUMP JUMPDEST PUSH1 0x20 DUP3 ADD MSTORE PUSH2 0x43E PUSH1 0x60 DUP6 ADD PUSH2 0x382 JUMP JUMPDEST PUSH1 0x40 DUP3 ADD MSTORE PUSH2 0x44F PUSH1 0x80 DUP6 ADD PUSH2 0x398 JUMP JUMPDEST PUSH1 0x60 DUP3 ADD MSTORE PUSH2 0x460 PUSH1 0xA0 DUP6 ADD PUSH2 0x328 JUMP JUMPDEST PUSH1 0x80 DUP3 ADD MSTORE PUSH1 0xC0 SWAP4 SWAP1 SWAP4 ADD CALLDATALOAD PUSH1 0xA0 DUP5 ADD MSTORE POP SWAP3 SWAP1 SWAP2 POP JUMP JUMPDEST PUSH1 0x0 DUP1 PUSH1 0x40 DUP4 DUP6 SUB SLT ISZERO PUSH2 0x48B JUMPI PUSH1 0x0 DUP1 REVERT JUMPDEST PUSH2 0x494 DUP4 PUSH2 0x328 JUMP JUMPDEST SWAP2 POP PUSH2 0x369 PUSH1 0x20 DUP5 ADD PUSH2 0x372 JUMP JUMPDEST PUSH1 0x0 PUSH1 0x20 DUP3 DUP5 SUB SLT ISZERO PUSH2 0x4B4 JUMPI PUSH1 0x0 DUP1 REVERT JUMPDEST PUSH2 0x321 DUP3 PUSH2 0x328 JUMP INVALID LOG2 PUSH5 0x6970667358 0x22 SLT KECCAK256 LOG4 STATICCALL 0xE2 GASPRICE 0xE PUSH2 0xF62E SWAP10 BLOBHASH OR ADDRESS 0xF 0xE0 0xE2 0x2D SWAP4 0xF6 SWAP8 GT PUSH20 0x721CD0120CF42BF828A6564736F6C634300081C STOP CALLER "
        },
        "methodIdentifiers": {
          "getHumanityInfo(bytes20)": "68c3d8ff",
          "isHuman(address)": "f72c436f",
          "mockGetHumanityInfo(bytes20,(bool,bool,uint48,uint40,address,uint256))": "c9065dee",
          "mockHumanityOf(address,bytes20)": "6b2611fa",
          "mockIsHuman(address,bool)": "d1c1f555"
        }
      }
    }
  }
}